:020000040000fa
:080000000002040000000000f2
:020000040000fa
:10000800f6030000f6030000f6030000f603000004
:10001800f6030000f6030000f6030000f6030000f4
:10002800f6030000f6030000f6030000f6030000e4
:10003800f6030000f6030000f6030000f6030000d4
:10004800f6030000f6030000f6030000f6030000c4
:10005800f6030000f6030000f6030000f6030000b4
:10006800f6030000f6030000f60300009a02000001
:10007800f6030000f6030000f6030000f603000094
:10008800f6030000f6030000f6030000f603000084
:10009800f6030000f6030000f6030000f603000074
:1000a800f6030000f6030000f6030000f603000064
:1000b800f6030000f6030000f6030000f603000054
:1000c800f6030000f6030000f6030000f603000044
:1000d800f6030000f6030000f6030000f603000034
:1000e800f6030000f6030000f6030000f603000024
:1000f800f6030000f6030000f6030000f603000014
:10010800f6030000f6030000f6030000f603000003
:10011800f6030000f6030000f6030000f6030000f3
:10012800f6030000f6030000f6030000f6030000e3
:10013800f6030000f6030000f6030000f6030000d3
:10014800f6030000f6030000f6030000f6030000c3
:10015800f6030000f6030000f6030000f6030000b3
:10016800f6030000f6030000f6030000f6030000a3
:10017800f6030000f6030000f6030000f603000093
:10018800f6030000f6030000f6030000f603000083
:10019800f6030000f6030000f6030000f603000073
:1001a800f6030000f6030000f6030000f603000063
:1001b800f6030000f6030000f6030000f603000053
:1001c800f6030000f6030000f6030000f603000043
:1001d800f6030000f6030000f6030000f603000033
:1001e800f6030000f6030000f6030000f603000023
:0801f800f6030000f60300000d
:020000040000fa
:10020800f6030000f6030000f6030000f603000002
:10021800f6030000f6030000f6030000f6030000f2
:10022800f6030000f6030000f6030000f6030000e2
:10023800f6030000f6030000f6030000f6030000d2
:10024800f6030000f6030000f6030000f6030000c2
:10025800f6030000f6030000f6030000f6030000b2
:10026800f6030000f6030000f60300009a020000ff
:10027800f6030000f6030000f6030000f603000092
:10028800f6030000f6030000f6030000f603000082
:10029800f6030000f6030000f6030000f603000072
:1002a800f6030000f6030000f6030000f603000062
:1002b800f6030000f6030000f6030000f603000052
:1002c800f6030000f6030000f6030000f603000042
:1002d800f6030000f6030000f6030000f603000032
:1002e800f6030000f6030000f6030000f603000022
:1002f800f6030000f6030000f6030000f603000012
:10030800f6030000f6030000f6030000f603000001
:10031800f6030000f6030000f6030000f6030000f1
:10032800f6030000f6030000f6030000f6030000e1
:10033800f6030000f6030000f6030000f6030000d1
:10034800f6030000f6030000f6030000f6030000c1
:10035800f6030000f6030000f6030000f6030000b1
:10036800f6030000f6030000f6030000f6030000a1
:10037800f6030000f6030000f6030000f603000091
:10038800f6030000f6030000f6030000f603000081
:10039800f6030000f6030000f6030000f603000071
:1003a800f6030000f6030000f6030000f603000061
:1003b800f6030000f6030000f6030000f603000051
:1003c800f6030000f6030000f6030000f603000041
:1003d800f6030000f6030000f6030000f603000031
:1003e800f6030000f6030000f6030000f603000021
:0803f800f6030000f60300000b
:020000040000fa
:10040000cf8020000eff20000e01880000000000b9
:10041000000020000000e000020032000001200087
:10042000200288000c000700205c20000100200052
:1004300011000700000020000000e0000200320070
:100440000000020000000000ac03020000000000f9
:100450000040da000000fe004440a9000000200037
:100460000000e0000300320000002000a00188002e
:100470004440a80000000600910188008000780038
:100480000000eb0015003700e280400032a0b4000d
:100490009101ba00e280400032a0b4009102ba009b
:1004a000e280400032a0b4000002eb00472bde00e7
:1004b000f507b200602ce10004003a000059eb009f
:1004c0008301e900fdff3e00040037006128e100e0
:1004d000010032000082eb00040007001101ba00a5
:1004e0000200e000e8ff3a00000006003159ba00bf
:1004f0008301e9000c0032002159ba008301e900b0
:10050000080032000400e00003003a00e2804000ee
:1005100032a0b400f5ff370011d9ba008301e90019
:10052000faff3a008100e800e180400032a0b40008
:1005300000000600809fbe003400f800000020008c
:10054000a00188000000fa008660a9001016800053
:1005500000407800614060000080fb00004088009f
:10056000101680000000d100614060000080fb0098
:10057000104088000140800020408000808f5000a3
:1005800025003200004080000000e0001100320031
:10059000104080000000e000070032004040800072
:1005a0005140800061005000e080580040408800c9
:1005b000514088004000370040408000514080009a
:1005c00061004000e08048004040880051408800c1
:1005d00039003700104080000000e00007003200c2
:1005e000404080005140800061004000e0804800b1
:1005f00040408800514088002f0037004040800074
:100600005140800061005000e08058004040880068
:1006100051408800280037001140800030408000a1
:10062000808f500024003200104080000000e00065
:1006300011003200004080000000e000070032009e
:10064000404080005140800061004000e080480050
:10065000404088005140880017003700404080002b
:100660005140800061005000e08058004040880008
:100670005140880010003700004080000000e0007a
:10068000070032004040800051408000610050006f
:10069000e080580040408800514088000600370044
:1006a000404080005140800061004000e0804800f0
:1006b0004040880051408800004080002040880071
:1006c00010408000304088000080fa003400f900bb
:1006d0004f00be00004006000000fa0011e1a90032
:1006e000800880000040a1000050a1008008880020
:1006f0001061a9001021a9009a21ef009c21ef00b0
:10070000d00c800000a0a10000b0a10000c0a1009a
:10071000d00c8800d00c80000000a1000010a000c8
:100720000020a000d00c8800e10c800000fe2f000b
:1007300000806000c000b300e00c8800f0f92000e9
:100740006008880010002000000d880011e1a8005a
:100750000080fa00000006000000fa00e024ef002c
:10076000e224ef00c002a800c022a80010168000fa
:1007700000407800614060000080fb00204088005d
:10078000101680000000d100614060000080fb0076
:10079000304088006240a8006e40a9006260a80056
:1007a0006e60a9006005800000c0a10000d0a1001b
:1007b00000e0a000600588008660a9009660a8009f
:1007c000c5ff070040408000514080002400070022
:1007d00032332300532024003900070005000700ae
:1007e00000007800000d8800f6ff37000040da00b6
:1007f0000000fe000001be001c0007000470a700fe
:1008000003f0a10003f8a30013003a006509b1004a
:1008100010003200090035006928e10002003500af
:100820000100280000000500000040008180480011
:100830008502e900fcff3a0000000600f88f420044
:10084000050035008100d1000080d3008502e8005a
:10085000fcff3a00000006008000eb0000000500ed
:100860004f89de008201780049003700c70ade00a8
:10087000f107b200f50fb20008003200e1cf4200ec
:10088000020032000170a00024000500810f7000fa
:10089000010032000408050044000500810f7000cb
:1008a00002003a00140005008502e9000000400043
:1008b00081c04800fcff3b000170a000240005003f
:1008c000889fbe008a9fbe008c1f7800950007009d
:1008d0009c00330003866c006450e1002400320069
:1008e0006420e100270032006150e1002200320064
:1008f0006120e100210032008b854200eb07b1004e
:100900000134b800003ab8000804420089844a0063
:10091000013ab8000030b8008880400009014a0060
:1009200004003300000040008180480002014900bb
:100930008b05e900c909dd00830170000100320068
:1009400013002000c814de004814dd004709de0053
:100950001200b200c808de00088470004b000700d7
:1009600001f0a1000cf0a70001f0a0007e0037000c
:100970006120e100800032000801be000200be00dc
:10098000f7ff37006150e100fcff3a007a003700c2
:10099000881f7800030478000300e00007003d0092
:1009a00060001000e080180060011900e08119006b
:1009b00002003b0001f02d00030037000400070097
:1009c00008f0a70001f0a0004f0478000000060026
:1009d000889fbe008a9fbe000082700004027100e2
:1009e00004827100260032000004be000200be0036
:1009f0006011b8006b092000950220000182cf0031
:100a00000a0039000541b1000082cf00070039001b
:100a10000541b1000982cf00040039000541b10051
:100a20000882cf00010039000541b10005425200a3
:100a3000120032000a003b008281710061016400f3
:100a40008100d1000080d3008984d3000884d300c2
:100a50008b05e8000442e800f7ff3a000700370082
:100a60000804440089844c0000004800818048004c
:100a70008b05e9000442e900f9ff3a000300070092
:100a80004f05be004f04be0000000600810020009c
:100a9000618055000b003d000b00200061fe2f001f
:100aa0000100e1001d0034008281710061016400d9
:100ab0008904d1000884d3000000e800faff3a005e
:100ac00071002000610064000300700002006000fb
:100ad0000900320061044400e0844c000988a5004c
:100ae000050032008b05e8006808e10002003a00ca
:100af0008904d1000884d300f20f20000258e100dd
:100b000005003d00c75ddd00f907b2008980750072
:100b100008007800000006000bf827008b00780022
:100b2000000005000004be0050ff07000003be00e7
:100b30000405be000200be004cff0700844f750094
:100b4000000006000200be006450e100050036000f
:100b50006420e100020036000968a30001003a00a9
:100b60000800be000160a0004f0678004f05be00df
:100b70004f04be0000000600f0ff2f00f1ff270029
:040b8000f9ff370042
:020000040000fa
:100b8400000800000c00000000000000000000004d
:020000040000fa
:0200000401f009
:04000c00f8ff0000f9
:00000001FF
